:0A0DA100000102020303040405052B
:10039A00E4F513F512F511F510C203C200C202C248
:1003AA0001120AA87E0A7F008E238F24752B0A75F4
:1003BA002C1275210A75221C75290A752A3C752D7D
:1003CA000A752E5C90E680E030E70E8521258522AD
:1003DA0026852927852A28800C852925852A268588
:1003EA002127852228EE54E0700302050D751400BA
:1003FA007515807E0A7F008E168F17C374A69FFF1D
:10040A00740A9ECF2402CF3400FEE48F0F8E0EF5BD
:10041A000DF50CF50BF50AF509F508AF0FAE0EADA3
:10042A000DAC0CAB0BAA0AA909A808C3120D90506F
:10043A002AE515250BF582E514350AF58374CDF006
:10044A00E4FAF9F8E50B2401F50BEA350AF50AE9AD
:10045A003509F509E83508F50880C0E4F50BF50A11
:10046A00F509F508AF0FAE0EAD0DAC0CAB0BAA0A31
:10047A00A909A808C3120D905037E517250BF58274
:10048A00E516350AF583E0FFE515250BF582E51437
:10049A00350AF583EFF0E4FAF9F8E50B2401F50BD8
:1004AA00EA350AF50AE93509F509E83508F5088053
:1004BA00B385142385152474002480FF740A34FF3D
:1004CA00FEC3E52C9FF52CE52B9EF52BC3E5269F55
:1004DA00F526E5259EF525C3E5289FF528E5279EFF
:1004EA00F527C3E5229FF522E5219EF521C3E52ADA
:1004FA009FF52AE5299EF529C3E52E9FF52EE52DC0
:10050A009EF52DD2E843D82090E668E04409F090A1
:10051A00E65CE0443DF0D2AF90E680E020E105D20F
:10052A0005120C8A90E680E054F7F0538EF8C20365
:10053A00300105120100C201300329120DBB5024FB
:10054A00C2031208D620001690E682E030E704E0E3
:10055A0020E1EF90E682E030E604E020E0E4120CCD
:09056A00B9120DBD1208FF80C793
:010573002265
:1001000090E6B9E070030201DC147003020285245A
:10011000FE700302031A24FB70030201D61470035D
:100120000201D01470030201C41470030201CA2436
:10013000056003020386120DBF400302039290E69E
:10014000BBE024FE602C14604724FD60161460316F
:1001500024067066E52390E6B3F0E52490E6B4F05B
:10016000020392E52B90E6B3F0E52C90E6B4F002A2
:100170000392E52590E6B3F0E52690E6B4F002039D
:1001800092E52790E6B3F0E52890E6B4F0020392FA
:1001900090E6BAE0FF120CE5AA06A9077B01EA493E
:1001A0004B600DEE90E6B3F0EF90E6B4F0020392F0
:1001B00090E6A0E04401F002039290E6A0E0440142
:1001C000F0020392120D7E020392120DB30203920B
:1001D000120DAB020392120D6C020392120DC1407C
:1001E0000302039290E6B8E0247F602B14603C2465
:1001F00002600302027BA200E433FF25E0FFA202BB
:10020000E4334F90E740F0E4A3F090E68AF090E604
:100210008B7402F0020392E490E740F0A3F090E6C2
:100220008AF090E68B7402F002039290E6BCE054F0
:100230007EFF7E00E0D3948040067C007D01800438
:100240007C007D00EC4EFEED4F24A1F582740D3E46
:10025000F583E493FF3395E0FEEF24A1FFEE34E64F
:100260008F82F583E0540190E740F0E4A3F090E63C
:100270008AF090E68B7402F002039290E6A0E044CC
:1002800001F0020392120DC3400302039290E6B8FC
:10029000E024FE601D2402600302039290E6BAE0AF
:1002A000B40105C20002039290E6A0E04401F0020E
:1002B000039290E6BAE0705990E6BCE0547EFF7E6F
:1002C00000E0D3948040067C007D0180047C007DAA
:1002D00000EC4EFEED4F24A1F582740D3EF583E453
:1002E00093FF3395E0FEEF24A1FFEE34E68F82F515
:1002F00083E054FEF090E6BCE05480FF13131354E7
:100300001FFFE0540F2F90E683F0E04420F002033B
:100310009290E6A0E04401F08078120DC5507390F1
:10032000E6B8E024FE60202402706790E6BAE0B4EC
:100330000104D200805C90E6BAE06402605490E66A
:10034000A0E04401F0804B90E6BCE0547EFF7E00CC
:10035000E0D3948040067C007D0180047C007D0019
:10036000EC4EFEED4F24A1F582740D3EF583E4932F
:10037000FF3395E0FEEF24A1FFEE34E68F82F58394
:10038000E04401F0800C120574500790E6A0E044B0
:0903900001F090E6A0E04480F0C9
:010399002241
:030033000208FBC5
:0408FB0053D8EF32AD
:100A00001201000200000040B4041386000001023D
:100A100000010A0600020000004001000902200057
:100A200001010080320904000002FF0000000705F8
:100A300002020002000705860200020009022000EF
:100A400001010080320904000002FF0000000705D8
:100A5000020240000007058602400000040309046A
:100A6000100343007900700072006500730073008A
:100A7000360345005A002D00550053004200200067
:100A80004600580032002000470050004900460050
:100A9000200074006F0020005000490044002D0029
:080AA0003300350030000000B6
:10070000083001020408102040804210AE00004171
:0D07100010AD00C1044110AB004110AC0061
:100AA80090E600E054E74410F000000090E602747D
:100AB8008EF000000090E60174E3F090E61274A056
:100AC800F000000090E61474E0F000000090E613D7
:100AD8007402F000000090E615F00000000000002D
:100AE80090E6047480F00000007402F000000074C6
:100AF80004F00000007406F00000007408F0000024
:100B080000E4F000000090E618F0000000743CF0EB
:100B180000000090E61A745CF0000000E490E6190A
:100B2800F000000090E61BF000000090E62404F0BE
:0D0B380000000090E625742CF00000002263
:0108FF0022D6
:020DBB00D32241
:020DBD00D3223F
:020DBF00D3223D
:080DAB0090E6BAE0F538D3220E
:100D6C0090E740E538F0E490E68AF090E68B04F0EA
:020D7C00D32280
:080DB30090E6BAE0F52FD3220F
:100D7E0090E740E52FF0E490E68AF090E68B04F0E1
:020D8E00D3226E
:020DC100D3223B
:020DC300D32239
:020DC500D32237
:1005740090E6B9E0244F604A147003020632147006
:100584000302069E1470030206BF1470030206E001
:10059400240560030206FC75B4FF75B5FF75B60348
:1005A400E4F5A0F5B0F5B190E68BF000000090E61C
:1005B4008AF090E68B7404F090E6A0E04480F002A8
:1005C40006FE75B5FFE4F5B090E68BF0E5BA20E0E1
:1005D400FBE4F53BF53BE4F53AC37407953A243064
:1005E400F8E6FF7440253BF582E434E7F583E05FE9
:1005F400600B43B00243B00153B0FE800953B0FD19
:1006040043B00153B0FE053AE53AB408CC053BE5E6
:100614003BB404C2E4F5B000000090E68AF090E632
:100624008B7404F090E6A0E04480F00206FE75B5F9
:10063400FF75B004E490E68BF0E5BA20E0FBE4F546
:100644003BF53BE4F53AC37407953A2430F8E6FFEA
:100654007440253BF582E434E7F583E05F600B43A7
:10066400B00243B00153B0FE800953B0FD43B00162
:1006740053B0FE053AE53AB408CC053BE53BB40279
:10068400C2E4F5B000000090E68AF090E68B7404B2
:10069400F090E6A0E04480F0806075B4FF75A0019E
:1006A400E490E68BF000000090E68AF090E68B740C
:1006B40004F090E6A0E04480F0803F75B5FF75B08B
:1006C40060E490E68BF000000090E68AF090E68B00
:1006D4007404F090E6A0E04480F0801E75B603E454
:1006E400F5B100000090E68AF090E68B7402F09079
:0C06F400E6A0E04480F08002D322C32284
:100D1000C0E0C083C082D2015391EF90E65D7401C0
:080D2000F0D082D083D0E03254
:100D4000C0E0C083C0825391EF90E65D7404F0D0A0
:060D500082D083D0E032E6
:100D5600C0E0C083C0825391EF90E65D7402F0D08C
:060D660082D083D0E032D0
:100C5400C0E0C083C082852925852A268526828511
:100C64002583A37402F0852127852228852882857F
:100C74002783A37407F05391EF90E65D7410F0D0CE
:060C840082D083D0E032B3
:100D2800C0E0C083C082D2035391EF90E65D74089F
:080D3800F0D082D083D0E0323C
:100C1700C0E0C083C08290E680E030E720852125D0
:100C2700852226852682852583A37402F0852927B8
:100C3700852A28852882852783A37407F05391EF97
:0D0C470090E65D7420F0D082D083D0E032C2
:0109FF0032C5
:010DC70032F9
:010DC80032F8
:010DC90032F7
:010DCA0032F6
:010DCB0032F5
:010DCC0032F4
:010DCD0032F3
:010DCE0032F2
:010DCF0032F1
:010DD00032F0
:010DD10032EF
:010DD20032EE
:010DD30032ED
:010DD40032EC
:010DD50032EB
:010DD60032EA
:010DD70032E9
:010DD80032E8
:010DD90032E7
:010DDA0032E6
:010DDB0032E5
:010DDC0032E4
:010DDD0032E3
:010DDE0032E2
:010DDF0032E1
:010DE00032E0
:010DE10032DF
:010DE20032DE
:010DE30032DD
:010DE40032DC
:010DE50032DB
:010DE60032DA
:010DE70032D9
:010DE80032D8
:010DE90032D7
:10088F00AD07ED30E00D908100E09010ABF0A3E0EC
:10089F0054FEF0ED30E10D909100E09010ABF0A31D
:1008AF00E054FDF0ED30E20D90A100E09010ABF0C0
:1008BF00A3E054FBF0ED30E30D90B100E09010ABEE
:0708CF00F0A3E054F7F02252
:1009B800AD07ED30E00D908000E09010ABF0A3E0C3
:1009C8004401F0ED30E10D909000E09010ABF0A301
:1009D800E04402F0ED30E20D90A000E09010ABF0A2
:1009E800A3E04404F0ED30E30D90B000E09010ABCC
:0709F800F0A3E04408F02227
:10071D006080100001013F0101010107000003028B
:10072D000202020005070303030303030000000098
:10073D000000003F013F010101010107020100001E
:10074D000000000002030303030303030000000085
:10075D000000003F0101010101010107000000003F
:10076D000000000003030303030303030000000064
:10077D000000003F0101010101010107000000001F
:10078D000000000003030303030303030000000044
:10079D000000003F602410870000000000000000F2
:1007AD00000000000000000000000000000000003C
:1007BD00000000000000000000000000471080C095
:0607CD00100003FE4E00C7
:1007D40090E60174FEF090E6F504F0901080E0904D
:1007E400E6F3F0901081E090E6C3F0901082E09080
:1007F400E6C1F0901083E090E6C2F0901085E0909E
:10080400E6C0F0901086E090E6F4F075AF0774103F
:10081400F59A7400F59B759DE4E4F59EFF90E67BE4
:10082400E090E67CF00FBF80F490E67174FFF0F581
:10083400B490E672E04480F043B680000000E49097
:10084400E6C4F000000090E6C5F0901087E090E662
:10085400C6F0901088E090E6C7F0901089E090E62A
:10086400C8F090108AE090E6C9F090108BE090E612
:10087400CAF090108CE090E6CBF090108DE090E6FA
:0A088400CCF090108EE090E6CDF06D
:01088E002247
:03004300020900AF
:030053000209009F
:10090000020D1000020D5600020D4000020D2800DD
:10091000020C5400020C17000209FF00020DC70070
:10092000020DC800020DC900020DCA00020DCB0065
:10093000020DCC00020DCD00020DCE00020DCF0045
:10094000020DD000020DC700020DD100020DD20031
:10095000020DD300020DD400020DD500020DD60009
:10096000020DD700020DC700020DC700020DC7001F
:10097000020DD800020DD900020DDA00020DDB00D5
:10098000020DDC00020DDD00020DDE00020DDF00B5
:10099000020DE000020DE100020DE200020DE30095
:1009A000020DE400020DE500020DE600020DE70075
:0809B000020DE800020DE90050
:100CB90090E682E030E004E020E60B90E682E03046
:100CC900E119E030E71590E680E04401F07F147EF9
:0C0CD90000120BD190E680E054FEF022E7
:100C8A0030050990E680E0440AF0800790E680E0AB
:100C9A004408F07FDC7E05120BD190E65D74FFF00C
:0F0CAA0090E65FF05391EF90E680E054F7F02270
:020CE500A9075D
:100CE700AE2DAF2E8F828E83A3E064037017AD0104
:100CF70019ED7001228F828E83E07C002FFDEC3E80
:080D0700FEAF0580DFE4FEFFF2
:010D0F0022C1
:1008D60090E682E044C0F090E681F0438701000094
:0408E60000000022EC
:100BD1008E188F1990E600E054187012E51924015F
:100BE100FFE43518C313F518EF13F519801590E6D6
:100BF10000E05418FFBF100BE51925E0F519E518C1
:100C010033F518E5191519AE18700215184E60055F
:060C11001208EA80EE2249
:1008EA007400F58690FDA57C05A3E582458370F921
:0108FA0022DB
:03000000020B45AB
:0C0B4500787FE4F6D8FD75813B020B8C34
:100D9000EB9FF5F0EA9E42F0E99D42F0E89C45F0B9
:010DA0002230
:100B510002039AE493A3F8E493A34003F68001F21D
:100B610008DFF48029E493A3F85407240CC8C333A5
:100B7100C4540F4420C8834004F456800146F6DF74
:100B8100E4800B0102040810204080900700E47EFD
:100B9100019360BCA3FF543F30E509541FFEE49369
:100BA100A360010ECF54C025E060A840B8E493A330
:100BB100FAE493A3F8E493A3C8C582C8CAC583CA5B
:100BC100F0A3C8C582C8CAC583CADFE9DEE780BE13
:0107D3000025
:00000001FF
